:020000003B289B
:10000800FF00030E8301A4000A08A5008A017C08EA
:10001800A1007D08A0008B1C302886140611023030
:10002800FB000430FC00BA30FD00FD0B1928FC0B66
:100038001928FB0B19280000861006150230FB0052
:100048000430FC00BA30FD00FD0B2828FC0B2828E2
:10005800FB0B282800008B102108FC002008FD005D
:0E00680025088A00240E8300FF0E7F0E09007B
:1000760001308316031386008501073083129F0023
:10008600831681018B170B170B16831206110514A5
:1000960085108230FC00DD30FD00FD0B5028FC0B86
:1000A600502800000000051085148230FC00DD3069
:1000B600FD00FD0B5C28FC0B5C28000000008B108B
:0400C600482864283A
:02400E0011217E
:00000001FF
