:02000000552881
:1000060001308312031386000130F2000030F30042
:100016008030F000803073067002031D14287208C9
:10002600073C031C2D280230FB000430FC00BA30CC
:10003600FD00FD0B1C28FC0B1C28FB0B1C280000DC
:100046000608F000F00D701070088600F20A031919
:10005600F30A0B280730F2000030F30080307306F5
:10006600F00080307002031D3A2801307202031C32
:1000760054280230FB000430FC00BA30FD00FD0BB2
:100086004228FC0B4228FB0B422800000608F00021
:10009600F00CF013700886000130F202031CF30323
:0400A60031280800F5
:1000AA000730831203139F0083168601850183128A
:0800BA00860103205E28602886
:02400E0011217E
:00000001FF
